:020000040800F2
:10000000580F00209D010008A12300086D22000860
:100010009D230008310500086F290008000000003A
:10002000000000000000000000000000F1240008B3
:100030003505000800000000DD230008F324000857
:10004000B7010008B7010008B7010008B7010008B0
:10005000B7010008B7010008B7010008B7010008A0
:10006000B7010008B7010008B7010008B701000890
:10007000B7010008B7010008B7010008B701000880
:10008000B7010008B7010008B7010008B701000870
:10009000B7010008B7010008B7010008B701000860
:1000A000B7010008B7010008B7010008B701000850
:1000B000B7010008B701000800000000B701000800
:1000C000B70100080000000000000000B7010008B0
:1000D00000000000B7010008B701000800000000A0
:1000E000B7010008B7010008B701000800F002F8E6
:1000F00000F045F80AA090E8000C82448344AAF17D
:100100000107DA4501D100F03AF8AFF2090EBAE87A
:100110000F0013F0010F18BFFB1A43F0010318473B
:100120001C2A00003C2A0000103A24BF78C878C17D
:10013000FAD8520724BF30C830C144BF04680C60ED
:10014000704700000023002400250026103A28BF35
:1001500078C1FBD8520728BF30C148BF0B60704739
:10016000642900F0A780782900F0E080732900F06E
:100170007D81002070471FB51FBD10B510BD00F078
:10018000A7F91146FFF7F7FF02F002FC00F0C5F9EE
:1001900003B4FFF7F2FF03BC02F0EBFB0948804712
:1001A00009480047FEE7FEE7FEE7FEE7FEE7FEE759
:1001B000FEE7FEE7FEE7FEE704480549054A064B71
:1001C0007047000075250008ED0000085809002060
:1001D000580F0020580B0020580B002070470000DB
:1001E0000FB4044910B503AA029800F043F910BCFB
:1001F0005DF814FB000000202DE9F0410E46044696
:10020000002020622046E168884730B3252805D0C9
:10021000D4E901219047206A401CF2E7E1682046BA
:1002200000278847050018D0A5F14100192802D8F9
:1002300020354FF400673246294620462760FFF7F5
:100240008FFF40B1012804D0F61D26F007060836BE
:10025000D8E7361DD6E72846DAE7206ABDE8F08100
:1002600070B50C460546012A05D02878800600D5D1
:10027000EA69002302E0012305E05B1C934202D2FD
:10028000E05C0028F9D1A869E618C01AA861286ABC
:10029000184428622846AFF3008004E0D5E9012124
:1002A00014F8010B9047B442F8D32846AFF300800E
:1002B00070BD00002DE9F041064600241068752944
:1002C000314616A511D0AFF30080002803DAC0F143
:1002D000000013A507E031688A0701D511A502E0E7
:1002E000490704D510A5012401E0AFF300800021E7
:1002F0000A2306F1240707E0B0FBF3F203FB120028
:10030000303078541046491C0028F5D123462A463F
:100310003046BDE8F04100F03BB8000000000000AE
:100320002D0000002B0000002000000070B50446E6
:100330000D4621461068AFF300802188090502D5DB
:10034000104A7A4402E00F4A7A440E32002104F146
:10035000240307E000F00F064FEA1010965D5E548C
:1003600001F101010028F5D103462078000704D5EA
:10037000702D02D009B1113202232046BDE8704031
:1003800000F006B8CC2700007047704770477047F0
:100390002DE9F0470D4699469246044600F124089F
:1003A0000168880604D5E06921F01001216000E0B1
:1003B0000120A84202DDA0EB050700E00027A169AB
:1003C00007EB050202EB0900A1EB0000A061207819
:1003D000C00602D42046AFF30080002608E0D4E92E
:1003E00001211AF806009047206A401C761C206202
:1003F0004E45F4DB2078C0060AD52046AFF30080D6
:1004000006E0D4E9012130209047206A401C206298
:10041000381EA7F10107F4DC07E0D4E9012118F840
:1004200005009047206A401C2062281EA5F10105A6
:10043000F3DC2046AFF300802078000602D50220CE
:10044000BDE8F0870120FBE710B5436913B1AFF3B6
:10045000008001E0FFF704FF012010BD127800F1D9
:1004600024010A7000224A700122EDE711684FF062
:10047000FF32E9E7074B70B50D467B4400F011F8F9
:100480000446284600F020F810B14FF0FF3070BD50
:10049000204670BDFB24000001694A1C02610878F7
:1004A000704700B58FB0CDE90131002105910549B4
:1004B0007944CDE9031011466846FFF79DFE0FB061
:1004C00000BD0000E5FFFFFF007B00F080007047EB
:1004D000754600F029F8AE4605006946534620F0FF
:1004E0000700854618B020B5FFF766FEBDE820403E
:1004F0004FF000064FF000074FF000084FF0000BE0
:1005000021F00701AC46ACE8C009ACE8C009ACE892
:10051000C009ACE8C0098D4670470446AFF30080BF
:100520002046FFF735FE000000487047F80800201D
:1005300000BFFEE77047000070B50446002500F0DC
:10054000A3F9FF220021104600F0E4F904E0681C42
:1005500085B2012000F00AFA1D2000F027F910F002
:10056000010F02D1B5F5FA7FF1DBB5F5FA7F01DBBA
:10057000022070BD00204C4908600021082000F0D6
:10058000BDF90021092000F0B9F900210C2000F08C
:10059000B5F900210D2000F0B1F910210A2000F07A
:1005A000ADF91A210B2000F0A9F91121042000F067
:1005B000A5F91A21052000F0A1F9FF21062000F07D
:1005C0009DF91F21072000F099F9B021382000F093
:1005D00095F93F21282000F091F93021292000F0E1
:1005E0008DF9F921302000F089F9F721312000F050
:1005F00085F90D21C02000F081F90021C12000F013
:100600007DF93322C221802000F084F91221C62016
:1006100000F074F90C21C72000F070F91521C420F6
:1006200000F06CF9EE21CA2000F068F90521CB201A
:1006300000F064F92178E42000F060F96178E520A9
:1006400000F05CF9A178E22000F058F9E178E320AD
:1006500000F054F92179E02000F050F96179E120AF
:1006600000F04CF94FF48071002000F01FF84FF4B7
:100670008071102000F01AF81F2000F025F9C02228
:100680001B21802000F046F904221F21802000F069
:1006900041F9E42000F08AF82178884201D1002055
:1006A00067E7032065E700000C00002070B50546F1
:1006B0000C4600262946D42000F020F9E1B2D620CD
:1006C00000F01CF9C4F30721D72000F017F901E06E
:1006D000701C86B2EA2000F069F810F0010F03D018
:1006E00040F6FF708642F3DB70BD00002DE9F0415B
:1006F00005460F46392000F059F810B90020BDE832
:10070000F08129480178002000F0F8F82648008898
:10071000C0F30721012000F0F1F800213A2000F099
:100720007BF82149086000213A2000F075F81E4945
:10073000096841EA00201C49086000213A2000F0C5
:100740006BF8044600213A2000F066F844EA0024E1
:10075000241F00213A2000F05FF8064600213A20CD
:1007600000F05AF846EA0026681EA04200D26C1E2D
:1007700016F0800F01D1002403E03946204600F036
:100780001FF8094801780C2000F0B8F806480088E6
:10079000C0F307210D2000F0B1F840221E21802077
:1007A00000F0B8F82046AAE70C00002010B5044677
:1007B000204600F089F82146002000F02DF810BDF9
:1007C0003EB505460C4600221021114800F060FAA3
:1007D0003A2002900A20012301AA02A900900D48A4
:1007E00001F092F909E06D1E0A20012301AA2146B9
:1007F0000090084801F088F9641C002DF3D1002016
:10080000207001221021024800F042FA3EBD000093
:1008100000080140200000203EB505460C4600209F
:10082000029000221021164800F032FA04F01F0056
:10083000284302900A20012301AA02A9009011482E
:1008400001F062F9FF2002900A20012301AA02A907
:1008500000900C4801F058F914F0800F07D00A20DE
:10086000012301AA02A90090064801F04DF90122D6
:100870001021034800F00CFA9DF804003EBD000072
:1008800000080140200000200EB5FF2002900A2041
:10089000012301AA02A90090094801F035F90022BC
:1008A0000821084800F0F4F9642000F05FF8012204
:1008B0000821044800F0ECF9642000F057F80EBD60
:1008C000200000200008014010B5044604F060003C
:1008D0000949097888420ED003221F21A02000F088
:1008E00019F8C4F341121F21802000F013F804F01E
:1008F00060000149087010BD0A00002070B5044670
:100900000D462046FFF7E0FF2A462146402000F032
:1009100001F870BD37B584B004460D460020039041
:10092000002210210E4800F0B3F905F01F0020430B
:1009300003900A20012302AA03A90090094801F0AC
:10094000E3F80A20012302AA06A90090054801F055
:10095000DBF801221021024800F09AF907B030BDFF
:10096000000801402000002000BFFEE731B5002450
:1009700000F094F9044600BF00F090F9001B0099C4
:100980008842F9D338BD00002DE9F847034600241A
:100990000020002584460027002266E14FF0010870
:1009A00008FA02F4D1F8008008EA0400A0427DD1E0
:1009B000DFF8C0A2D1F80480A8EB0A09D0453AD0EC
:1009C00014DCB8F1030F50D009DCB8F1000F31D0BE
:1009D000B8F1010F1CD0B8F1020F49D120E0B8F1F5
:1009E000110F18D0B8F1120F42D11EE0B9F5881FCF
:1009F00025D006DCB9F5803F20D0B9F5801F37D16E
:100A00001AE0B9F5001F18D0B9F5041F30D117E06E
:100A1000D1F80CC02DE0D1F80C8008F1040C28E0CE
:100A2000D1F80C8008F1080C23E0D1F80C8008F113
:100A30000C0C1EE000BF00BF00BF00BF00BF00BF26
:100A4000D1F80880B8F1000F02D14FF0040C0BE090
:100A5000D1F80880B8F1010F03D14FF0080C1C61E8
:100A600002E04FF0080C5C6103E04FF0000C00E086
:100A700000BF00BFFF2801D8984601E003F1040839
:100A80004646FF2802D84FEA820803E0A2F1080890
:100A90004FEA88084746D6F800804FF00F0909FA58
:100AA00007F928EA09080CFA07F900E085E048EAA6
:100AB0000908C6F80080D1F8048008F08058B8F121
:100AC000805F7AD100BFDFF8B081D8F8188048F095
:100AD0000108DFF8A491C9F81880C846D8F8188032
:100AE00008F00108CDF8008000BF00BF4FEAB93818
:100AF0004FEA920958F829504FEA82784FEA18795C
:100B00004FF00F0808FA09F825EA0805DFF86C81AC
:100B1000434502D14FF000080FE0DFF86481434500
:100B200002D14FF0010808E0DFF85881434502D1B7
:100B30004FF0020801E04FF003084FEA82794FEAD4
:100B4000197908FA09F848EA0505DFF83C814FEA07
:100B5000920948F82950D1F8048008F48038B8F593
:100B6000803F0AD1DFF82481D8F8008048EA0008E5
:100B7000DFF81891C9F8008009E0DFF81081D8F893
:100B8000008028EA0008DFF80491C9F80080D1F855
:100B9000048008F40038B8F5003F0FD1DFF8EC808E
:100BA00008F10408D8F8008048EA0008DFF8DC9073
:100BB00009F10409C9F800800EE055E0DFF8CC80A7
:100BC00008F10408D8F8008028EA0008DFF8BC9093
:100BD00009F10409C9F80080D1F8048008F48018EC
:100BE000B8F5801F0ED1DFF8A48008F10808D8F806
:100BF000008048EA0008DFF8949009F10809C9F874
:100C000000800DE0DFF8848008F10808D8F8008043
:100C100028EA0008DFF8749009F10809C9F8008093
:100C2000D1F8048008F40018B8F5001F0ED1DFF8E1
:100C30005C8008F10C08D8F8008048EA0008DFF86A
:100C40004C9009F10C09C9F800800DE0DFF83C80F8
:100C500008F10C08D8F8008028EA0008DFF82C908A
:100C600009F10C09C9F80080521C102AFFF496AE55
:100C7000BDE8F88700001110001002400008014094
:100C8000000C014000100140080001400004014038
:100C90000AB1016101E00B0403617047014800687B
:100CA000704700001400002002480068401C014901
:100CB000086070471400002010B50848006840F034
:100CC000100006490860032000F096F8002000F0AC
:100CD00007F800F017F8002010BD000000200240C7
:100CE00070B5044600F0E4F94FF47A71B0FBF1F509
:100CF000284601F0C0F800222146501E00F03EF8C0
:100D0000002070BD08B500BF1B48806940F001009D
:100D1000194988610846806900F00100009000BF11
:100D200000BF032000F068F8002211466FF00B00AE
:100D300000F024F8002211466FF00A0000F01EF8BF
:100D4000002211466FF0090000F018F80022114649
:100D5000501F00F013F800221146101F00F00EF88B
:100D600000221146901E00F009F800221146501E84
:100D700000F004F808BD0000001002402DE9F05F0B
:100D800080460D461646002701F00CFB0746394603
:100D90002A46334601F00700C0F1070ABAF1040FF2
:100DA00002D94FF0040A01E0C0F1070AD14600F170
:100DB000040ABAF1070F02D24FF0000A01E0A0F1D5
:100DC000030AD4464FF0010A0AFA09FAAAF1010A05
:100DD0000AEA020A0AFA0CFA4FF0010B0BFA0CFBB2
:100DE000ABF1010B0BEA030B4AEA0B042146404628
:100DF00001F0E0FABDE8F09F00BF00F00702064BEB
:100E000019684FF6FF031940044B0B4343EA0221D4
:100E1000014B196000BF70470CED00E00000FA05BF
:100E200070B504460D4600269D48006800F0070096
:100E3000A8420ED29A48006820F00700284398493B
:100E400008600846006800F00700A84201D00120B1
:100E500070BD207800F00200022807D19148406858
:100E600020F0F000A16808438E494860207810F017
:100E7000010F7BD0606801282CD12020010391FA5A
:100E8000A1F1B1FA81F108430121B1EB601F02D158
:100E9000844800680FE02020010391FAA1F1B1FA23
:100EA00081F108430221B1EB601F02D17D48006A45
:100EB00001E07C48406A20210A0392FAA2F2B2FAC9
:100EC00082F2114301F01F020121914008425FD1DB
:100ED0000120BDE7606802282CD12020010591FA8D
:100EE000A1F1B1FA81F108430121B1EB601F02D1F8
:100EF0006C4800680FE02020010591FAA1F1B1FAD9
:100F000081F108430221B1EB601F02D16548006AFC
:100F100001E06448406A20210A0592FAA2F2B2FA7E
:100F200082F2114301F01F020121914008422FD1AA
:100F300001208DE72020022191FAA1F1B1FA81F17F
:100F400008430121B1EB601F02D15648006810E050
:100F50002020022191FAA1F1B1FA81F10843022186
:100F6000B1EB601F03D14F48006A02E052E04D48E8
:100F7000406A2021022292FAA2F2B2FA82F21143CE
:100F800001F01F0201219140084201D101205FE7D9
:100F90004448406820F003006168084341494860C4
:100FA000FFF77CFE06466068012810D108E0FFF7D5
:100FB00075FE801B41F28831884201D9032047E742
:100FC0003848406800F00C000428F0D122E0606846
:100FD000022810D108E0FFF761FE801B41F2883142
:100FE000884201D9032033E72E48406800F00C0006
:100FF0000828F0D10EE008E0FFF750FE801B41F218
:101000008831884201D9032022E72648406810F041
:101010000C0FF1D12248006800F00700A8420ED959
:101020001F48006820F0070028431D490860084653
:10103000006800F00700A84201D0012008E72078EE
:1010400000F00400042807D11648406820F4E0604E
:10105000E168084313494860207800F00800082838
:1010600008D11048406820F46050216940EAC1006E
:101070000C49486000F04EF80A49496801F0F00157
:10108000F02292FAA2F2B2FA82F2D140064A515C00
:10109000C840064908600020FFF722FE0020D7E67E
:1010A0000020024000100240FA2A00081C00002024
:1010B00001480068704700001C00002000B5FFF7E1
:1010C000F7FF0749496801F4E0614FF4E06292FAE2
:1010D000A2F2B2FA82F2D140024A515CC84000BD8D
:1010E000001002400A2B000800B5FFF7E1FF074996
:1010F000496801F460514FF4605292FAA2F2B2FAD8
:1011000082F2D140024A515CC84000BD001002404A
:101110000A2B0008F0B585B00FF28C0C9CE8E010AB
:1011200001A8A0E8E01024A52D6800950021002466
:10113000002200230020214D696811F00C052DD0FC
:10114000042D02D0082D28D101E01D4828E001F42B
:1011500070154FF4701696FAA6F6B6FA86F6F540B4
:1011600001AE735D11F4803F12D0144D6D6805F42B
:1011700000354FF4003696FAA6F6B6FA86F6F54034
:101180001DF805400E4DB5FBF4F505FB03F202E03A
:101190000C4D03FB05F2104602E000BF084800BFFB
:1011A00000BF05B0F0BD00000203040506070809F2
:1011B0000A0B0C0D0E0F101001020000001002406F
:1011C00000127A0000093D0038B504460025207859
:1011D00010F0010F7ED0FB48406800F00C0004289E
:1011E0000CD0F848406800F00C00082836D1F548CB
:1011F000406800F48030B0F5803F2FD120200103FB
:1012000091FAA1F1B1FA81F108430121B1EB601F1C
:1012100002D1EC4800680FE02020010391FAA1F10F
:10122000B1FA81F108430221B1EB601F02D1E54818
:10123000006A01E0E348406A20210A0392FAA2F220
:10124000B2FA82F2114301F01F02012191400842DB
:10125000C0D0606800283DD1012038BD00BF606863
:10126000B0F5803F06D1D748006840F48030D549BA
:10127000086028E0606858B9D248006820F48030DF
:10128000D04908600846006820F4802008601AE011
:101290006068B0F5A02F0BD1CA48006840F48020E8
:1012A000C84908600846006840F4803008600AE0D9
:1012B000C448006820F48030C249086008460068CD
:1012C00020F48020086000BF6068B8B3FFF7E6FC38
:1012D000054607E069E0FFF7E1FC401B642801D9FF
:1012E0000320BAE72020010391FAA1F1B1FA81F1BC
:1012F00008430121B1EB601F02D1B24800680FE042
:101300002020010391FAA1F1B1FA81F108430221F1
:10131000B1EB601F02D1AB48006A01E0A948406A06
:1013200020210A0392FAA2F2B2FA82F2114301F0EA
:101330001F02012191400842CDD036E0FFE7FFF7C0
:10134000ADFC054606E0FFF7A9FC401B642801D967
:10135000032082E72020010391FAA1F1B1FA81F183
:1013600008430121B1EB601F02D1964800680FE0ED
:101370002020010391FAA1F1B1FA81F10843022181
:10138000B1EB601F02D18F48006A01E08D48406ACE
:1013900020210A0392FAA2F2B2FA82F2114301F07A
:1013A0001F02012191400842CDD1207800F00200B7
:1013B00002284DD18348406810F00C0F0AD08148B4
:1013C000406800F00C00082843D17E48406810F4C3
:1013D000803F3ED12020022191FAA1F1B1FA81F1A2
:1013E00008430121B1EB601F02D1764800680FE08D
:1013F0002020022191FAA1F1B1FA81F108430221E2
:10140000B1EB601F02D16F48006A01E06D48406A8D
:101410002021022292FAA2F2B2FA82F2114301F0E2
:101420001F0201219140084204D02069012801D007
:10143000012012E76348006820F0F800F82292FAD1
:10144000A2F2B2FA82F26169914008435D490860F4
:101450008FE02069F0B3012191FAA1F0B0FA80F099
:10146000594A42F82010FFF719FC054606E0FFF73D
:1014700015FC401B022801D90320EEE620200221A2
:1014800091FAA1F1B1FA81F108430121B1EB601F9A
:1014900002D14C4800680FE02020022191FAA1F10E
:1014A000B1FA81F108430221B1EB601F02D1454836
:1014B000006A01E04348406A2021022292FAA2F227
:1014C000B2FA82F2114301F01F0201219140084259
:1014D000CDD000E00EE03B48006820F0F800F82294
:1014E00092FAA2F2B2FA82F2616991400843354958
:1014F00008603EE00021012090FAA0F0B0FA80F0F0
:10150000314A42F82010FFF7C9FB054606E0FFF715
:10151000C5FB401B022801D903209EE620200221A2
:1015200091FAA1F1B1FA81F108430121B1EB601FF9
:1015300002D1244800680FE02020022191FAA1F195
:10154000B1FA81F108430221B1EB601F02D11D48BD
:10155000006A01E01B48406A2021022292FAA2F2AE
:10156000B2FA82F2114301F01F02012191400842B8
:10157000CDD1207800F00800082849D1A06900B337
:10158000012191FAA1F0B0FA80F0104A42F820103F
:10159000FFF784FB054606E0FFF780FB401B0228AF
:1015A00001D9032059E66020022191FAA1F1B1FA94
:1015B00081F108430121B1EB601F09D101480068A6
:1015C00016E026E000100240000042428004424241
:1015D0006020022191FAA1F1B1FA81F108430221C0
:1015E000B1EB601F02D1F748006A01E0F548406A9C
:1015F0006021022292FAA2F2B2FA82F2114301F0C1
:101600001F02012191400842C6D00120FFF7AEF928
:101610003EE00021012090FAA0F0B0FA80F0EA4A02
:1016200042F82010FFF73AFB054606E0FFF736FBCD
:10163000401B022801D903200FE66020022191FA05
:10164000A1F1B1FA81F108430121B1EB601F02D190
:10165000DC4800680FE06020022191FAA1F1B1FAA4
:1016600081F108430221B1EB601F02D1D548006A25
:1016700001E0D448406A6021022292FAA2F2B2FA52
:1016800082F2114301F01F02012191400842CDD1A5
:10169000207800F00400042874D100BFC948C06954
:1016A00040F08050C749C8610846C06900F08050CA
:1016B000009000BF00BFC548006840F48070C34977
:1016C0000860FFF7EBFA054606E0FFF7E7FA401B74
:1016D000642801D90320C0E5BC48006810F4807F6D
:1016E000F3D000BFE068012806D1B648006A40F098
:1016F0000100B449086227E0E06858B9B148006ABF
:1017000020F00100AF4908620846006A20F004009A
:10171000086219E0E06805280BD1AA48006A40F089
:101720000400A84908620846006A40F00100086207
:101730000AE0A448006A20F00100A24908620846B5
:10174000006A20F00400086200BFE068C8B3FFF739
:10175000A5FA054608E0FFF7A1FA401B41F28831DF
:10176000884201D9032078E54020022191FAA1F1B5
:10177000B1FA81F108430121B1EB601F03D1914817
:10178000006810E056E04020022191FAA1F1B1FA80
:1017900081F108430221B1EB601F02D18948006A40
:1017A00001E08848406A4021022292FAA2F2B2FA8D
:1017B00082F2114301F01F02012191400842CAD078
:1017C00038E0FFE7FFF76AFA054608E0FFF766FA38
:1017D000401B41F28831884201D903203DE5402079
:1017E000022191FAA1F1B1FA81F108430121B1EB93
:1017F000601F02D1734800680FE04020022191FA77
:10180000A1F1B1FA81F108430221B1EB601F02D1CD
:101810006C48006A01E06B48406A4021022292FA5B
:10182000A2F2B2FA82F2114301F01F0201219140AB
:101830000842CBD1E069002871D06248406800F0CE
:101840000C0008286CD0E06902286AD10021C0058C
:1018500090FAA0F0B0FA80F05D4A42F82010FFF74D
:101860001DFA054606E0FFF719FA401B022801D9C8
:101870000320F2E42020010591FAA1F1B1FA81F1EF
:1018800008430121B1EB601F02D14E4800680FE010
:101890002020010591FAA1F1B1FA81F1084302215A
:1018A000B1EB601F02D14748006A01E04548406A39
:1018B00020210A0592FAA2F2B2FA82F2114301F053
:1018C0001F02012191400842CDD1206AB0F5803F2E
:1018D00007D13C48406820F40030A16808433949EA
:1018E0004860D4E9080108433649496821F4741175
:1018F0000843344948600121080690FAA0F0B0FA84
:1019000080F0334A42F82010FFF7C8F9054609E095
:10191000FFF7C4F9401B022804D903209DE479E0B5
:1019200076E02BE02020010591FAA1F1B1FA81F1D6
:1019300008430121B1EB601F02D1224800680FE08B
:101940002020010591FAA1F1B1FA81F108430221A9
:10195000B1EB601F02D11B48006A01E01948406AE0
:1019600020210A0592FAA2F2B2FA82F2114301F0A2
:101970001F02012191400842CAD04BE000214FF0E4
:10198000807090FAA0F0B0FA80F0114A42F820106E
:10199000FFF784F9054606E0FFF780F9401B0228AF
:1019A00001D9032059E42020010591FAA1F1B1FAEF
:1019B00081F108430121B1EB601F0BD101480068A0
:1019C00018E0000000100240800442420070004015
:1019D000000042422020010591FAA1F1B1FA81F103
:1019E00008430221B1EB601F02D10B48006A01E0FD
:1019F0000948406A20210A0592FAA2F2B2FA82F25C
:101A0000114301F01F02012191400842C4D101E0BD
:101A1000012022E4002020E40010024010B504461A
:101A20000CB9012010BD94F8510010B9204600F007
:101A30003BF8022084F851002068006820F0400044
:101A400021680860D4E901010843E168084321697D
:101A5000084361690843218B01F400710843E1697F
:101A60000843216A0843A16A0843216808600421E9
:101A7000A06901EA1040616A084321684860216852
:101A8000E06A08612068C06920F400602168C861CC
:101A90000020044908706065012084F8510000208E
:101AA000C0E700001800002010B586B004461349B6
:101AB0002068884220D100BF1148806940F48050DE
:101AC0000F4988610846806900F48050019000BF8A
:101AD00000BFA0200290022003900320059002A9DD
:101AE0000848FEF751FF4020029000200390049028
:101AF00002A90448FEF748FF06B010BD00300140BF
:101B000000100240000801402DE9F84304460E464B
:101B100017461D46DDF820800020009094F8510003
:101B2000012803D094F85100222876D10EB107B1D4
:101B300015B90120BDE8F88300BF94F850000128D2
:101B400001D10220F6E7012084F8500000BF94F88C
:101B50005100012802D1322084F851000020606534
:101B6000A763A587E5872663A586E586A064E0646C
:101B7000A06AB0F5005F0DD100BF2068006820F4B6
:101B80000050216808602068006840F40050216817
:101B9000086000BF2068006800F04000402805D0C1
:101BA0002068006840F0400021680860E068B0F5F7
:101BB000006F75D1606830B16068B0F5827F0CD17C
:101BC000E08E012809D1206B00882168C860206B55
:101BD000801C2063E08E401EE086E08EF0B9A06A93
:101BE000B0F5005F05D12068006840F4805021689E
:101BF0000860434600220121204600F0F0FB08B1B6
:101C0000032097E72068C068A16B0880A06B801C48
:101C1000A063E08F401EE087C7E015E131E0434656
:101C200000220221204600F0DAFB08B1032081E700
:101C3000206B00882168C860206B801C2063E08EC8
:101C4000401EE086E08E48B9A06AB0F5005F05D17D
:101C50002068006840F480502168086043460022F4
:101C60000121204600F0BBFB08B1032062E7206899
:101C7000C068A16B0880A06B801CA063E08F401E31
:101C8000E087E08E0028CADC60680028C4D14346A3
:101C900000220121204600F0A2FB10B1032049E7F9
:101CA0000AE02068C068A16B0880A06B801CA0635C
:101CB000E08F401EE08778E0606830B16068B0F582
:101CC000827F0BD1E08E012808D1216B481C206354
:101CD00008782168C860E08E401EE086E08ED0B9AA
:101CE000A06AB0F5005F05D12068006840F480501C
:101CF00021680860434600220121204600F06FFB66
:101D000008B1032016E72068C068A16B0870E08F57
:101D1000401EE08749E030E0434600220221204691
:101D200000F05DFB08B1032004E7216B481C206331
:101D300008782168C860E08E401EE086E08E48B9D1
:101D4000A06AB0F5005F05D12068006840F48050BB
:101D500021680860434600220121204600F03FFB35
:101D600008B10320E6E62068C068C1B2A26B501C2F
:101D7000A0631170E08F401EE087E08E0028CBDC6E
:101D8000606890B9434600220121204600F027FBFD
:101D900008B10320CEE62068C068C1B2A26B501C17
:101DA000A0631170E08F401EE087A06AB0F5005F6D
:101DB00012D1434600220121204600F010FB28B139
:101DC000606D40F0020060650320B3E62068C068E3
:101DD00080B20090BDF800004346012280212046D9
:101DE00000F0FDFA28B1606D40F01000606503203E
:101DF000A0E6012084F85100A06AB0F5005F1DD173
:101E000020688068C0F30010C0B1606D40F002002F
:101E1000606500BF2068006820F4005021680860F9
:101E20002068006840F400502168086000BF00BFCF
:101E3000002084F8500000BF01207BE600BF002096
:101E400084F8500000BF75E6022073E6042808D12C
:101E50004FF0E021096941F004014FF0E0221161E7
:101E600007E04FF0E021096921F004014FF0E02282
:101E700011617047704770B504462546681EB0F181
:101E8000807F01D301200FE0681E4FF0E021486100
:101E90000F214FF0FF3000F08DFA00204FF0E021CD
:101EA000886107200861002070BD10B5FFF7E2FFD0
:101EB00010BD024600BF92F83800012801D102206F
:101EC0007047012082F8380000BF022082F83900F4
:101ED0001068406820F0700013685860106840680F
:101EE0000B681843136858601068806820F0800001
:101EF00013689860106880684B681843136898608E
:101F0000012082F8390000BF002082F8380000BFAD
:101F100000BFD5E710B504460CB9012010BD94F8F8
:101F2000390028B9002084F83800204600F00CF869
:101F3000022084F83900211D206800F047FB0120B1
:101F400084F839000020E9E708B5094A01689142A0
:101F50000DD100BF0749896941F40061054A9161CB
:101F60001146896901F40061009100BF00BF08BDFE
:101F7000002C0140001002402DE9F04104460D46BE
:101F8000002600BF94F83800012802D10220BDE8E5
:101F9000F081012084F8380000BF022084F8390065
:101FA0002068866826F0770626F47F4620688660DB
:101FB000286850283BD00CDC202860D004DC0028A6
:101FC00053D0102865D155E030285DD0402860D12D
:101FD00041E0602835D070280DD0B0F5805F03D087
:101FE000B0F5005F55D115E02068806820F007004B
:101FF000216888604EE0D5E902136A68206800F025
:1020000013FB2068866826F0770646F0770620687E
:1020100086603FE0D5E902136A68206800F004FB9F
:102020002068806840F480402168886032E0EA6877
:102030006968206800F00EFB5021206800F000FB6A
:1020400028E0EA686968206800F019FB60212068D0
:1020500000F0F6FA1EE0EA686968206800F0FAFA13
:102060004021206800F0ECFA14E00021206800F024
:10207000E7FA0FE01021206800F0E2FA0AE02021E0
:10208000206800F0DDFA05E03021206800F0D8FA81
:1020900000E000BF00BF012084F8390000BF00202D
:1020A00084F8380000BF00BF71E710B504460CB9D2
:1020B000012010BDA06900B100E000BF94F8390014
:1020C00028B9002084F83800204600F025F80220C6
:1020D00084F839002068C06820F400502168C86086
:1020E000204600F0E3FA2068006920F4904021685F
:1020F00008612068406920F02A0021684861206852
:10210000C06840F400502168C8600020E0630120EE
:1021100084F839000020CCE710B586B00446144995
:102120002068884221D100BF1248806940F4804075
:10213000104988610846806900F48040019000BF22
:1021400000BF48150290022003900320059002A9C9
:102150000948FEF719FC4FF48060029000200390BC
:10216000049002A90448FEF70FFC06B010BD000061
:102170000038014000100240000801402DE9F047FE
:1021800004460D46164699464FF0000894F83980EB
:10219000B8F1010F02D0B8F1220F65D105B116B91F
:1021A0000120BDE8F08700BF94F83800012801D174
:1021B0000220F6E7012084F8380000BF0020E06329
:1021C00094F83900222803D1322084F8390002E043
:1021D000122084F83900A684E68428E0E08C401EB2
:1021E000E084A068B0F5805F14D14B4600228021C6
:1021F000204600F03FFB08B10320D2E72F46388885
:10220000C0F3080021684860206908B9AD1C0EE0E1
:102210006D1C0CE04B4600228021204600F02AFB7A
:1022200008B10320BDE715F8010B21684860E08C78
:102230000028D3DC4B4600224021204600F01AFB48
:1022400008B10320ADE794F83900322803D12220E9
:1022500084F8390002E0012084F8390000BF002032
:1022600084F8380000BF9CE702209AE700BFFEE731
:1022700000B585B000BF1048806940F004000E49E9
:1022800088610846806900F00400009000BF00BF2C
:1022900000224FF48C710948FEF7FAFC4FF48C7061
:1022A0000190012002900220049001A90348FEF74A
:1022B0006BFB05B000BD00000010024000080140AB
:1022C00010B50E480E4908604FF482704860002136
:1022D0000B488160C160016141614FF4007181610F
:1022E0002821C16100210162416281620A21C1622B
:1022F000FFF794FB08B1FEF737FB10BD003001403B
:102300002000002000B587B014481549086040201F
:1023100048600021124881604FF47A71C160002149
:1023200001614161FFF7F6FD08B1FEF71DFB4FF4B7
:102330008050039003A90A48FFF71EFE08B1FEF77C
:1023400013FB00200190029001A90548FFF7B1FDA1
:1023500008B1FEF709FB07B000BD0000002C0140EA
:102360007800002010B50B480B4908604FF4E130AD
:102370004860002108488160C16001610C21416111
:1023800000218161C161FFF790FE08B1FEF7ECFA10
:1023900010BD000000380140B400002000BFFEE77F
:1023A0007047000002480068C0F302207047000038
:1023B0000CED00E010B5002807DA0A07140E054AF4
:1023C00000F00F031B1FD45403E00A07130E024A48
:1023D000135410BD18ED00E000E400E070472DE953
:1023E000F04104460E4617461D464FF00008FEF722
:1023F00055FC8046002F3DD131E0681C2FD02DB117
:10240000FEF74CFCA0EB0800A84228D920684068E1
:1024100020F0E000216848602068006820F040005B
:1024200021680860A06AB0F5005F0DD100BF206888
:10243000006820F40050216808602068006840F4BB
:1024400000502168086000BF012084F8510000BFDF
:10245000002084F8500000BF0320BDE8F081206810
:1024600080683040B04201D1012000E00020002807
:10247000C3D03BE030E0681C2ED02DB1FEF70EFC3F
:10248000A0EB0800A84227D92068406820F0E000AF
:10249000216848602068006820F0400021680860DA
:1024A000A06AB0F5005F0DD100BF2068006820F47D
:1024B0000050216808602068006840F400502168DE
:1024C000086000BF012084F8510000BF002084F89C
:1024D000500000BF0320C0E7206880683040B04251
:1024E00001D1012000E000200028C4D10020B4E781
:1024F000704710B5FEF7D8FBFFF7D7FC10BD10B53D
:1025000090B00220069001200A9010200B9002202B
:102510000D9000210E914FF460110F9106A8FEF767
:1025200053FE08B1FEF720FA0F200190022002901E
:10253000002003904FF48060049000200590022159
:1025400001A8FEF76DFC08B1FEF70EFAFEF7B0FD2C
:102550004FF47A71B0FBF1F42046FFF78CFC0420B5
:10256000FFF774FC00221146501EFEF707FC10B066
:1025700010BD00001148006840F001000F490860DC
:10258000084640680E4908400C4948600846006803
:102590000C490840094908600846006820F480207A
:1025A00008600846406820F4FE0048604FF41F00B1
:1025B0008860C803044908607047000000100240AA
:1025C0000000FFF8FFFFF6FE08ED00E000220268C1
:1025D000134B984205D0B0F1804F02D0114B984276
:1025E00003D122F070024B681A430D4B984205D07C
:1025F000B0F1804F02D00B4B984203D122F44072CD
:10260000CB681A4302608B68C3620B688362044B19
:10261000984201D10B6903630123436170470000B5
:10262000002C01400004004030B50C4600218168B8
:1026300021F47F4142EA032525432943816030BDCF
:102640000A460021816821F0700142F00703194316
:102650008160704730B50B46144600210022026AA3
:10266000056A25F001050562816921F0F00141EA62
:10267000041122F00A021A438161026230BD30B5B2
:102680000B46144600210022056A25F0100505625C
:102690008169026A21F4704141EA043122F0A0020A
:1026A00042EA03128161026230BD00002DE9F0416F
:1026B000044600252068006920F44050E168084382
:1026C000216808612169A0680843616940EA010541
:1026D0002068C06841F20C61884328432168C860C3
:1026E0002068406920F44070A1690843216848616E
:1026F0005F49206888425CD1FEF7F6FC00EBC00120
:1027000001EB001061688900B0FBF1F6FEF7ECFC0C
:1027100000EBC00101EB001061688900B0FBF1F033
:102720006421B0FBF1F000EBC00101EB0010A6EB5F
:102730008000322101EB00106421B0FBF1F000F0C9
:10274000F006FEF7D1FC00EBC00101EB0010616860
:102750008900B0FBF1F06421B0FBF1F006EB00164C
:10276000FEF7C2FC00EBC00101EB001061688900BC
:10277000B0FBF1F7FEF7B8FC00EBC00101EB001075
:1027800061688900B0FBF1F06421B0FBF1F000EB6F
:10279000C00101EB0010A7EB8000322101EB00101B
:1027A0006421B0FBF1F000F00F0030442168886034
:1027B0005BE0FEF783FC00EBC00101EB00106168F9
:1027C0008900B0FBF1F6FEF779FC00EBC00101EBEC
:1027D000001061688900B0FBF1F06421B0FBF1F0FA
:1027E00000EBC00101EB0010A6EB8000322101EBF1
:1027F00000106421B0FBF1F000F0F006FEF75EFC83
:1028000000EBC00101EB001061688900B0FBF1F042
:102810006421B0FBF1F006EB0016FEF74FFC00EB75
:10282000C00101EB001061688900B0FBF1F7FEF711
:1028300045FC00EBC00101EB001061688900B0FBB2
:10284000F1F06421B0FBF1F000EBC00101EB0010EE
:10285000A7EB8000322101EB00106421B0FBF1F006
:1028600000F00F00304421688860BDE8F08100006E
:10287000003801402DE9F04104460E4617461D463A
:102880004FF00008FEF70AFA80469FBB2BE0681C59
:1028900029D02DB1FEF702FAA0EB0800A84222D9F8
:1028A0002068C06820F080002168C8602068C06887
:1028B00020F020002168C8602068C06820F4807083
:1028C0002168C8602068406920F0010021684861E3
:1028D000012084F8390000BF002084F8380000BFD0
:1028E0000320BDE8F081206800683040B04202D18A
:1028F000012001E003E000200028C8D035E02AE0F4
:10290000681C28D02DB1FEF7C9F9A0EB0800A84239
:1029100021D92068C06820F080002168C860206844
:10292000C06820F020002168C8602068C06820F4DA
:1029300080702168C8602068406920F0010021682B
:102940004861012084F8390000BF002084F8380075
:1029500000BF0320C5E7206800683040B04201D1C5
:10296000012000E000200028CAD10020B9E700BF04
:10297000FEE700BF7047000013B50C460A23012292
:1029800069460248FFF7FAFB00981CBDB40000201E
:1029900008B500BF21A000680090FEF78DF9FFF791
:1029A000AEFDFFF765FCFFF78BFCFFF7DBFCFFF7E5
:1029B000A9FC1BA11DA0FDF713FC00F05DF82CE0A5
:1029C00000224FF480712148FEF762F96420FDF780
:1029D000CDFF012211021D48FEF75AF96420FDF7D0
:1029E000C5FF00F07DF81A490880084600880028D5
:1029F00012DD18A0FDF7F4FB002406E01948015D84
:102A000019A0FDF7EDFB601C84B2114800888442D8
:102A1000F4DB16A0FDF7E4FB00BFD1E723FF0000C5
:102A200031373A31373A353600000000746869733F
:102A30002069732070726F746575732064656D6FA3
:102A40000D0A74696D653A25730D0A00000801408E
:102A5000100000207265632061207061636B6574F3
:102A60003A0D0A00F4000020257820000D0A6F7648
:102A700065720D0A0000000070B500250E48FDF7D4
:102A80005BFD054625B129460CA0FDF7A9FB02E038
:102A90000EA0FDF7A5FB002405E00748005D0F49E7
:102AA0000855601CC4B2062CF7DB40F276411420B6
:102AB000FDF7FCFD284670BDF42A0008696E6974B4
:102AC000206572726F722025640D0A00696E697448
:102AD00069616C206F6B200D0A000000040000206B
:102AE00010B5034940F2EE50FDF700FE80B210BD74
:102AF000F400002004023500000100000000000086
:102B0000000001020304060708090000000001029A
:102B10000304303132333435363738394142434497
:102B20004546403058003031323334353637383945
:102B30006162636465664030780000005C2B0008C9
:102B40000000002020000000280100087C2B000865
:102B500020000020380F00004401000800000000A1
:102B60000000000000000000000000000000000065
:0C2B7000000000000000000000A24A0469
:04000005080000ED02
:00000001FF
